:1000000000800020BD0100007B0C00007B0C000084
:100010007B0C00007B0C00007B0C0000790C0000C6
:10002000790C0000790C0000790C00007B0C0000BA
:100030007B0C0000790C00007B0C00007D0C0000A4
:100040007B0C00007B0C00007B0C00007B0C000094
:100050007B0C00007B0C00007B0C00007B0C000084
:100060007B0C00007B0C00007B0C00007B0C000074
:100070007B0C00007B0C00007B0C00007B0C000064
:100080007B0C00007B0C00007B0C00007B0C000054
:100090007B0C00007B0C00007B0C00007B0C000044
:1000A0007B0C00007B0C00007B0C00007B0C000034
:1000B0007B0C00007B0C00007B0C00007B0C000024
:1000C0007B0C00007B0C00007B0C00003108000062
:1000D0007B0C00007B0C00007B0C00007B0C000004
:1000E0007B0C00007B0C00007B0C00007B0C0000F4
:1000F0007B0C00007B0C00007B0C00007B0C0000E4
:100100007B0C00007B0C00007B0C00007B0C0000D3
:100110007B0C00007B0C00007B0C00007B0C0000C3
:100120007B0C00007B0C00007B0C00007B0C0000B3
:100130007B0C00007B0C00007B0C00007B0C0000A3
:100140007B0C00007B0C00007B0C00007B0C000093
:100150007B0C00007B0C00007B0C00007B0C000083
:100160007B0C00005D0F00007B0C00007B0C00008E
:100170007B0C00007B0C00007B0C00007B0C000063
:100180007B0C00007B0C00007B0C00007B0C000053
:100190007B0C00007B0C00007B0C00007B0C000043
:1001A0007B0C00007B0C00007B0C00007B0C000033
:1001B0007B0C00007B0C00007B0C0000494B4CF2D8
:1001C000205210B51A804DF628121A8000BF00BFC9
:1001D00000F05CFD444B4FF010621A60434A9A6095
:1001E000434ADA60434B1A6812F4807204D14249E0
:1001F0000A604FF4A8521A60404B1A7802F00802C5
:10020000D2B21AB11A7842F008021A7000233C4A9E
:100210003C483D4C02E019599950043399188142E9
:10022000F9D33A4B3A4A002101E043F8041B9342C8
:10023000FBD3384B00221A60374B384A802103F831
:10024000011B9342FBD1364B0A221A70354B2422F4
:100250001A70A02203F8012C334A137803F002032A
:10026000DBB2002BF9D0304A137803F01003DBB275
:10027000002BF9D12C4A137803F00C03082BFAD188
:100280002A4B03221A7040225A70274A137803F02F
:100290002003DBB2002BF9D0234A137803F040038C
:1002A000DBB2002BF9D0224A224B1A60224B2022CB
:1002B0001A701D4A137803F00C030C2BFAD11F4B54
:1002C00002221A601E4A43F8442C1E4B4BF67F3222
:1002D0001A60072243F8042C62B600F0DDFC00F03F
:1002E00005FBFEE70E20054030800440823F0400FD
:1002F0000100002B10D0034014D0034002D007406F
:100300000084FF1FA884FF1FA41C0000A884FF1FF7
:10031000A005002008ED00E000E400E05FE400E05C
:10032000005006400140064006400640044006409A
:10033000000003114480044000400640488004400F
:10034000C010050014E000E0FFFFFFFFFFFFFFFF0C
:10035000FFFFFFFFFFFFFFFFFFFFFFFFFFFFFFFFAD
:10036000FFFFFFFFFFFFFFFFFFFFFFFFFFFFFFFF9D
:10037000FFFFFFFFFFFFFFFFFFFFFFFFFFFFFFFF8D
:10038000FFFFFFFFFFFFFFFFFFFFFFFFFFFFFFFF7D
:10039000FFFFFFFFFFFFFFFFFFFFFFFFFFFFFFFF6D
:1003A000FFFFFFFFFFFFFFFFFFFFFFFFFFFFFFFF5D
:1003B000FFFFFFFFFFFFFFFFFFFFFFFFFFFFFFFF4D
:1003C000FFFFFFFFFFFFFFFFFFFFFFFFFFFFFFFF3D
:1003D000FFFFFFFFFFFFFFFFFFFFFFFFFFFFFFFF2D
:1003E000FFFFFFFFFFFFFFFFFFFFFFFFFFFFFFFF1D
:1003F000FFFFFFFFFFFFFFFFFFFFFFFFFFFFFFFF0D
:10040000FFFFFFFFFFFFFFFFFFFFFFFFFEFFFFFFFD
:1004100008B548F2A840074BC1F6FF701B1A062B1F
:1004200000D808BD40F20003C0F20003002BF8D052
:100430009847F6E7AB84FF1F08B548F2A84048F29A
:10044000A843C1F6FF70C1F6FF731B1A9B1003EBA4
:10045000D373591000D108BD40F20002C0F200026F
:10046000002AF8D09047F6E710B548F2A844C1F644
:10047000FF74237873B9FFF7CBFF40F20003C0F29B
:1004800000032BB141F6A440C0F20000AFF300809E
:100490000123237010BD00BF08B540F20003C0F275
:1004A00000034BB141F6A44048F2AC41C0F2000059
:1004B000C1F6FF71AFF3008048F2A840C1F6FF70AB
:1004C00003682BB140F20003C0F2000303B1984768
:1004D000BDE80840FFF7B0BF0C4B1A78AAB90C4A28
:1004E000116841F0400111600A494FF419720A6025
:1004F00041F8042C084A2721117004215171202150
:1005000011718021517001221A707047C484FF1F3D
:10051000348004400CA004400160064020292DE9ED
:10052000F04704460D46914650D82A4B12221A70C5
:10053000294A117801F02001C9B229B1B4231370FE
:100540000CE000F0EBF800E01E46337803F02003E7
:10055000DBB2002BF5D1204BB0221A701D4F1F4E7D
:100560004FEA440AB846002428E014B986F800A0EF
:1005700007E009EB040313F8013C337001E000F0DD
:10058000CDF83B7803F00203DBB2002BF7D0022357
:1005900088F8003098F80030DA0704D5002C14BF32
:1005A000042002200DE003F01003DBB223B1094B5D
:1005B00010221A70082004E00134E4B2A542D4DA13
:1005C0000020054B80221A70BDE8F0870120BDE8AD
:1005D000F08700BF036006400260064004600640EA
:1005E00020292DE9F04705460C46164601D901227F
:1005F00032E0434B12221A70424A117801F0200176
:10060000C9B229B1B42313700CE000F087F800E000
:100610001F463B7803F02003DBB2002BF5D1394BAA
:10062000B0221A706D00384B45F001051D70344D35
:1006300001E000F073F82A78314B02F00202D2B2E6
:10064000002AF6D002221A70197811F0010003F185
:10065000FF3306D0802119702C4B00205A70BDE862
:10066000F08701F01001C9B219B180221A7004227A
:1006700042E0012C01D1A82200E0A0221A70DFF88C
:100680008080214BDFF87CA01B780025C14616E056
:1006900000F044F898F8003003F00203DBB2002BBE
:1006A000F6D0013CE4B20223012C89F8003002D1DB
:1006B000A8238AF80030144B1B7873550135012CA0
:1006C000EFB2E7D802E000F029F800E00C4C237804
:1006D00003F00203DBB2002BF5D0094B02221A70A3
:1006E000B02203F8012C084A1278781CF2558022B7
:1006F00003F8012CC0B20022044B5A70BDE8F08709
:10070000036006400260064004600640C484FF1F88
:10071000014B5878704700BFC484FF1F7047002307
:1007200000E00133C25C002AFBD11846704710B5C7
:100730000023B0FBF2F402FB1400092801D830308A
:1007400000E03730C85420460CB10133F1E7CA1835
:100750005470224605E0885CCC5C8C54C85401324D
:10076000013B9A42F7DB084610BD031E10B50C464C
:1007700003DBBDE81040FFF7DABF2D2001F8010BC5
:100780005842FFF7D4FF204610BDFFFF72B60B4B57
:100790000B491A680B4B1B68096862B6490102D500
:1007A000322A88BF0133C2F53B427F323021B2FB8F
:1007B000F1F24FF47A7000FB0320704718E000E07C
:1007C00004ED00E0C884FF1F70B50446FFF7DEFFAC
:1007D00005466CB140F2E736FFF7D8FF401BB04248
:1007E00003D9013C04D005F57A75FFF797FFF3E7CD
:1007F00070BD00BFF8B506460F46002409E000F0C2
:1008000049FF431CFBD00D2806D00A2804D03055E0
:100810000134E5B2BD42F2D32846F8BD10B5044616
:10082000FFF77DFF01462046BDE8104000F0DCBF29
:1008300038B5254B254A198889B252F82120244918
:1008400012020A6000220A60198801311980198891
:1008500089B22F2988BF1A801E4B18681D681E4B4D
:100860001B889BB293B11D4B1D4A198889B252F85F
:10087000214004EB252442F821401A88194B92B2FA
:1008800053F8221001EB202143F82210134B1A8851
:1008900001321A801A8892B2B2F57F6F05D3002216
:1008A0001A800D4B1A8801321A800B4C23889BB298
:1008B000FF2B07D900F0CAF90B4A002323801370DD
:1008C000064A138038BD00BF8C050020AC1A00001A
:1008D00020F00240A0F00240880500208A05002098
:1008E00088C5FF1FC885FF1FCC84FF1F2DE9F04777
:1008F00000F052FE6420FFF767FFFFF7EDFD642074
:10090000FFF762FF0023624A194699540133402BD6
:10091000FBD10BE05F48FFF781FF5D484021FFF707
:1009200069FF20B95C48FFF779FF00E0584C237855
:10093000792B01D0592BEDD1554A00230021995430
:100940000133402BFBD100F0E7F86420FFF73CFFB8
:1009500000F01AF90A20FFF737FF5048FFF75EFF53
:100960000A20FFF731FF01240A2249492046FFF7F8
:10097000FCFE4B48FFF752FF4548FFF74FFF494841
:10098000FFF74CFFE0B200F0B2F80A224049FFF74F
:10099000ECFE3F48FFF742FF4348FFF73FFF0134BB
:1009A0006420FFF711FF092CDED10023384A1946D5
:1009B00099540133402BFBD13C483D4FDFF8108167
:1009C000FFF72CFF42F21070FFF7FEFE00252E46C7
:1009D000384B394A3E80A8F800601E80002342F858
:1009E00023500133B3F57F6FF9D1294A00239D5479
:1009F0000133402BFBD10BE03048FFF70FFF2448B9
:100A00004021FFF7F7FE20B92348FFF707FF00E07A
:100A10001F4C2378792B01D0592BEDD12848294C34
:100A2000FFF7FCFE01232370A14600F0EFF803E07E
:100A30004FF47A70FFF7C8FE99F80040002CF7D108
:100A4000DFF874A0DFF88C900A2211495AF82400CC
:100A5000FFF78BFE0E48FFF7E1FE1B48FFF7DEFEB7
:100A60000A220B4959F82400FFF77FFE0848FFF7D8
:100A7000D5FE0D48FFF7D2FE01343220FFF7A4FE69
:100A8000B4F57F6FE0D11148FFF7C8FEA0E700BFC3
:100A9000480500206C1B0000811B0000A91B000002
:100AA000BD1B0000C61B0000381C0000C91B000055
:100AB0008C0500208805002088C5FF1F041C00004D
:100AC000191C0000CC84FF1F2A1C00002C1C0000F5
:100AD0008A050020C885FF1F07B58DF804008DF832
:100AE00005101020022101AAFFF718FD0EBD1FB549
:100AF00004AA012102F8090D1020FFF70FFD0121C2
:100B000010200DF10F02FFF76BFD01280CBF9DF8BF
:100B10000F00002005B000BD10B5FFF7DDFC64201C
:100B2000FFF752FE154B4FF480721A60144B1A688F
:100B3000012442F001021A60204643F80C4CFFF7F2
:100B400043FE104B02201C60FFF73EFE03210720EE
:100B5000FFF7C2FF2046FFF737FE38212046FFF798
:100B6000BBFF0A20FFF730FE07200221FFF7B4FF8A
:100B70000A20BDE81040FFF727BE00BF00C00440B8
:100B8000D4F00F40C4F00F40194B1A6842F40042F1
:100B900030B51A60174A184D00231360536042F8AD
:100BA000A03CA03A02244FF0007142F85C4C42F89D
:100BB000581C12494FF4803042F8540C42F8501C33
:100BC0000F4A2A60C5F8CC300E4B1C604FF08444AD
:100BD0005C609860D9601A610B4A4FF4C0634FF4AF
:100BE00080611360CC35536093601161536130BDF7
:100BF0003C80044000F1024014F00240121F01004A
:100C0000001F1F1F84F0024004B0044072B60D4B59
:100C10001A6842F002421A6053F8802C42F01242E5
:100C200042F4807243F8802C002243F8602C43F891
:100C3000602C43F8602C43F8602C034B08221A60A8
:100C400062B6704780F0024004E100E072B6084BE3
:100C500008221A60074B1A6822F000421A60D3F883
:100C6000802022F00042C3F8802062B6704700BFA7
:100C700084E100E000F00240FEE7FEE7024B1A6864
:100C800001321A60704700BFC884FF1F014B102259
:100C90001A807047002005407047034A13681818EF
:100CA00010601846704700BF0084FF1F0020704787
:100CB0004FF0FF3070474FF400534B6000207047F7
:100CC000012070474FF0FF307047FEE7FEE701203C
:100CD00070477047EFF313839BB9EFF3108098B917
:100CE000EFF3058323B10F2B04D9084A985C01E088
:100CF0004FF48070EFF311833BB1984228BF184640
:100D000070474FF0FF30704718467047F0E300E03F
:100D100072B60C4A1168B1FA81F30B2B02D962B694
:100D2000002070474FF0004020FA03F021EA000154
:100D3000116062B6044948225343C8180022CA50C1
:100D4000426070470484FF1FA080FF1F0C4B4822A5
:100D5000C31AB3FBF2F30B2B11D80A4A127822B153
:100D6000094A12780AB100F077B872B6074A4FF014
:100D7000004121FA03F311681943116062B670470C
:100D8000A080FF1FF484FF1F1485FF1F0484FF1F32
:100D900070B50C4B0C4C1A7842F0020504EBC506FA
:100DA00082F00102706058781A7000280CBF882603
:100DB000C82646EA014180F0010044F83510587019
:100DC00070BD00BFD084FF1F0080FF1F431E032B98
:100DD00010B510D872B6094A02EB8302506808B108
:100DE00041685160064A018832F81340611A22F8BE
:100DF000131062B610BD002010BD00BFD084FF1FCD
:100E00008E050020013803280DD8084B03EB800025
:100E1000436972B6002002E01A885B688018002BD4
:100E2000FAD162B670470020704700BFD084FF1F20
:100E3000013803280CD872B6064B03EB80004369D7
:100E4000002001E05B680130002BFBD162B67047E7
:100E500000207047D084FF1F70B572B61A4E1B4C2D
:100E600001239A1912F8012C02F00802D2B2F2B151
:100E70009900164A54F831502DB902EB431308304B
:100E80005860134B09E041F0010154F8315075B935
:100E900002EBC103083058600E4B42F831300E4B64
:100EA00093F82420013A83F8242062B670BD013300
:100EB000052BD6D162B6084B002283F82420BDE86A
:100EC0007040FFF743BF00BF3C1C00000080FF1FC5
:100ED00088004000C8004000D084FF1F421E032A43
:100EE00030B533D840011A4B40F01000181872B6D4
:100EF000184CA31893F82530032B09D8DFE803F02A
:100F0000130215050830022310E0083004230DE019
:100F10009200A318586908B9596101E0DB6A596069
:100F2000A218D16211E0032300E00523A21810F0FB
:100F3000080F82F8253001F108030A8843600CBFCE
:100F40008823C82343EA0243036062B630BD00BF72
:100F50000080FF1FD084FF1F00BE70472DE9F74FB0
:100F6000A94EAA4C357805F00403DBB2BBB1A84BFF
:100F700093F844208AB193F845202AB1013AD2B2BD
:100F800083F8452002B900BEA24A13782BB1013B79
:100F9000DBB213700BB900F0B3FC0423337005F01F
:100FA0000802D2B2002A00F095829B4B1B781D09E3
:100FB0004FEA930940F0008204EBC903596854F8E2
:100FC0003930C3F38303013B0C2B00F2F181DFE8DE
:100FD00013F0A601A601EF01EF01EF01EF01EF0110
:100FE000EF01C401EF01EF01EF010D004B688848EC
:100FF0000A68C364894B826440F2816592B244F806
:10100000393001210023AA4203652361A3614170A5
:1010100019D8B2F5D06F80F02881B2F5817F00F049
:10102000E18006D8802A00F0C180822A40F03C810D
:10103000C1E040F202318A4200F00681B2F5A06FB1
:1010400040F0328134E1B2F5106F10D004D8B2F51F
:10105000086F40F02981A2E042F221018A4200F0AB
:101060005B8101F500718A4240F01E8117E190F822
:101070004A30664D80F844302B6A180603D5686AFA
:101080000838FFF763FE664908358D42F4D1DFF872
:10109000B0B10025A846D9460BF1500A55F80B000F
:1010A00005E043680093FFF751FE009B18460028B7
:1010B000F7D15C4B49F8050045F80A00E85807E00D
:1010C000426800930192FFF741FE019A009B10468F
:1010D0000028F5D15851544BE850544B23F81800D0
:1010E000534B18F80320023A032A08D8DFE802F02D
:1010F00002040204002200E0012203F8082008F1A3
:1011000001080435B8F1040FC8D1414BDFF8349120
:10111000002283F8242001259846464B05EB09025E
:10112000EB1812F8012C9B001A7002F00802D2B2E0
:101130003AB3FFF7EDFDAB0038B104EB45120830D0
:1011400050603D4A44F8332006E044F8330098F8F4
:101150002430013388F82430FFF7DAFDAB0043F088
:10116000010338B104EBC302083050602B4A44F845
:10117000332006E044F8330098F82430013388F82F
:101180002430AA0042F00201013542F0030200239C
:10119000052D44F8313044F83230BED188E090F863
:1011A0004430054605F83C3F0B4686E080F83C306D
:1011B00080F83D307EE0B0F84C20042A00D973E07E
:1011C00080F83C3080F83D301C4B9200D3181B78DF
:1011D00003F00203DBB2002B6CD00546022305F8B6
:1011E0003C1F6AE0B0F84C2002F07F03042B5BDC6C
:1011F000B0F84A3003B157E09100104A8A181178CC
:1012000021F002014EE000BF802007400080FF1F58
:10121000D084FF1FC585FF1F90200740C8004000F5
:101220008080FF1FE484FF1FFC84FF1F8E050020C9
:10123000F584FF1F30C8011088004000C02007401F
:10124000D484FF1F3C1C0000B0F84C2002F07F0348
:10125000042B29DCB0F84A3003B125E09100AF4AF5
:101260008A18117841F002011CE0B0F84A20B0F869
:101270004C10AB4B53F8085CA3F10C00A5B133F84C
:101280000CCC944509D133F80ACC8C4505D1120A0F
:10129000032A0CBF2B7803890FE00C33EAE790F8A0
:1012A0004A10A04A117003E09C4B0F221A7033E0E1
:1012B0001D4602E0022300F13C059B4AB2F84E9025
:1012C0004B4538BF9946B9F1400F34BFC8464FF07F
:1012D000400828464146FFF75BFDB9EB0809454445
:1012E00003D1B8F1400F07D016E0B9F1400F34BF79
:1012F000C8464FF0400800E0C84628464146FFF780
:1013000047FDB9EB0809454402D1B8F1400F03D1BC
:10131000854A1565A2F864900122844B47E0824B10
:10132000B3F8482042F221039A4212D1804A0023A6
:10133000C85C98540133072BFAD17D4B1B68862B70
:1013400003D1794B0F2283F8452000200146FFF797
:101350001FFD784B44F839302AE0DFF8CC91D9F8FA
:101360005080B8F1000F16D0B9F864A0BAF1400F60
:1013700034BF5546402540462946FFF709FDC5EBD9
:101380000A039BB2A9F864300BB9402D01D108EBD8
:101390000503654A1365644BB3F84820B2F5A06FA6
:1013A00006D1002283F8492093F84A20624B1A7034
:1013B0005E4B01221A708AE004EBC90803F00803AF
:1013C000D8F80420013DD9B2A2F10800EDB20029FD
:1013D00045D0FFF7BBFC544B03EB8500416921B3BB
:1013E0004A68426101F10802C8F804205A1992F8CB
:1013F0002520032A10D8DFE802F00205080B5D194A
:10140000032307E05D19022304E05D19052301E0D1
:101410005D19042385F8253018F0080F0A880CBFE1
:101420008823C82343EA02434FE05A1992F8252043
:10143000032A0BD8DFE802F04B4B02055D190023AD
:1014400001E05D19012385F8253040E018F0080F10
:101450001D440CBF0222032285F8252037E054F8F2
:1014600039301B0C22F8083C4BB322F8061C42F81A
:10147000041C2D4A4FEA850E02EB0E0194464A6881
:101480000AB9486001E04A6D50600CEB0E02DFF8CB
:1014900098A05065294A32F815105B1822F81530CB
:1014A000FFF736FC18B10830C8F8040007E09AF8D6
:1014B000243044F8390001338AF8243007E01D4B0A
:1014C0001F4A18F0080F08BF134644F839300823A4
:1014D000337047E5E9073DD5134C1448184D2146B4
:1014E0000223037001F8682B164BA8341D60596065
:1014F0001A619A619D60DC60084B0D2119701249D8
:10150000FF230B7001F8083C0A74104A1370104B4B
:101510009F221A700123037035E000BFC0200740EE
:101520004C1C0000C685FF1FD084FF1F942007407D
:1015300098050020C8004000982007408E05002034
:10154000880040000080FF1F882007408C20074053
:10155000842007402B0605D50C4B0D221A708022E3
:1015600003F8402C05F00203DBB22BB1084B1A78CC
:101570001A70022203F8082C05F01005EDB215B11F
:10158000044B10221A70BDE8FE8F00BFC020074038
:10159000882007408020074008B500F04BF8002362
:1015A0001E491A465A50C8180833882B4260F9D190
:1015B0001B4B1A6842F480221A601A4B80221A7060
:1015C0001978184A0906FBD4144B1749C3F30720AE
:1015D0000870C3F307401B0E08750B76FF2301F854
:1015E0001C3C01F8143C01F88C3C137843F0400398
:1015F00013700021012302F8783C02F80C1C02F859
:10160000883C0A4B70226FF4507C1A7063444FF48C
:1016100000721A60064B10221A7008BD0080FF1F6E
:10162000348004400C2107409C20074049E400E03E
:10163000082107401FB572B6124B70221A70124A69
:10164000412111700F2102F8011C80221A701A78B2
:101650001206FCD562B60D4B01A918680A22FFF7E5
:1016600066F80B48002301AA9A5C2AB100EB4301FB
:1016700001330A2B4A80F6D10133054A5B0013700F
:1016800005B000BD00000240070002400800024013
:101690000884FF1F38B5114C23684BB10F4D2868E3
:1016A0004288811801320C7A01888A4212D30CE0F8
:1016B0000B4B1B7813B94FF0FF340CE00320FFF7FE
:1016C00085FB20600028E9D1F5E7FFF73FFB002309
:1016D0002B6000E04280204638BD00BFB885FF1F68
:1016E0001485FF1F10B50C4C23681BB10A4B1B68F7
:1016F0006BB902E0094B1B7813B94FF0FF3010BDF6
:101700000320FFF763FB20600028EFD1F5E75A883C
:101710009B18187A10BD00BFB885FF1F1485FF1FE6
:10172000044B9888044B1B681BB11A885B88D31A3A
:10173000C01870478E050020B885FF1F2DE9F047BF
:101740000E4681464FF00008DFF868A0184F2AE0E7
:101750009AF800304BB33B684BB90320FFF736FBD8
:10176000386010B3038813B9FFF7F0FAF5E73C6867
:10177000618825886D1AAE4238BF35460831484623
:101780002A46611800F0D8F86388A944A844761B5B
:10179000ED182388ADB2AB42658004D82046FFF730
:1017A000D5FA00233B60002ED2D14046BDE8F08739
:1017B000B885FF1F1485FF1F10B5094B1B786BB14F
:1017C000084C206818B1FFF7C1FA002323600320FA
:1017D000FFF7FCFA10B1FFF7B9FAF8E710BD00BF48
:1017E0001485FF1FB885FF1F2DE9F8432B4CDFF848
:1017F000B08001230D462371064647E0A3681BBB5A
:1018000047F209574FF0010998F8003013B9234AFD
:10181000137112E00420FFF70BFB072806D884F8A9
:101820000490FFF775FAA06070B92071013F01D0F4
:10183000237B33B1194B01221A734FF0FF30BDE8FF
:10184000F883FEF76BFFDFE7A1684888C0F140022C
:10185000954238BF2A4600F10807002380182373F9
:10186000CF194880AD1A02E0F05CF854013393427E
:10187000FAD1F6184B883F2B06D940230B80042061
:10188000FFF72CFB0023A36005236373002DB5D164
:10189000024B28461D71BDE8F88300BFB885FF1FC5
:1018A0001485FF1F07B502AB012103F8010D18468F
:1018B000FFF79AFF0EBD70B50F4B1B78DBB10F4CD5
:1018C000A568012626714DB16B8800266673042039
:1018D0002B802946FFF702FBA66009E0FFF718FA04
:1018E000014620B104206573FFF7F8FA00E0667343
:1018F000024B00221A7170BD1485FF1FB885FF1FAF
:1019000038B50C4C25799DB9A16831B14B880420BC
:101910000B80FFF7E3FAA56038BDFFF7F9F9014640
:1019200020B10420BDE83840FFF7D8BA0123637323
:1019300038BD00BFB885FF1F032A2DE9F00F09D875
:101940002AB10023CC5CC45401339342FAD1BDE8E0
:10195000F00F7047830702440ED0441C4D1C15F84D
:10196000017C04F00306234601342946013504F8BE
:10197000027C002EF3D100E0034611F003046DD089
:10198000D71A0D1B032F2E6819DDC4F1040C4FEA82
:10199000C4081C1D4FEACC0C55F8047FC4EB0209A7
:1019A000234604310434B9F1030F26FA08FA07FA82
:1019B0000CFB3E464BEA0A0744F8087CECDC9A42F2
:1019C000C5D901330131013211F8014C0133013124
:1019D000934203F8024CF7D1B9E70C684033403129
:1019E00043F8404C51F83C4C43F83C4C51F8384CCF
:1019F00043F8384C51F8344C43F8344C51F8304CDF
:101A000043F8304C51F82C4C43F82C4C51F8284CEE
:101A100043F8284C51F8244C43F8244C51F8204CFE
:101A200043F8204C51F81C4C43F81C4C51F8184C0E
:101A300043F8184C51F8144C43F8144C51F8104C1E
:101A400043F8104C51F80C4C43F80C4C51F8084C2E
:101A500043F8084C51F8044C43F8044CD41A3F2C7A
:101A6000BBDC11E00C681033103143F8104C51F816
:101A70000C4C43F80C4C51F8084C43F8084C51F806
:101A8000044C43F8044CD41A0F2CEBDC032C96DDE9
:101A90001C1D0D1D55F8047C161B234629460434D5
:101AA0000435032E44F8087CF4DC88E700000000CD
:101AB000F4E30E00AF861D0015A82B00410A390083
:101AC00094724500B5AA50007E815A00D8CB6200BE
:101AD0007265690063316E00A91A71008214720088
:101AE000A91A710063316E0072656900D8CB62007B
:101AF0007E815A00B5AA500094724500410A39000F
:101B000015A82B00AF861D00F4E30E0000000000B6
:101B10000C1CF1FF5179E2FFEB57D4FFBFF5C6FF74
:101B20006C8DBAFF4B55AFFF827EA5FF28349DFF19
:101B30008E9A96FF9DCE91FF57E58EFF7EEB8DFF2F
:101B400057E58EFF9DCE91FF8E9A96FF28349DFF1C
:101B5000827EA5FF4B55AFFF6C8DBAFFBFF5C6FF68
:101B6000EB57D4FF5179E2FF0C1CF1FF496E697409
:101B700020636F6465633F2028792F6E290D0A3E2C
:101B8000004572726F722072656164696E67206CC5
:101B9000696E652E20506C656173652074727920C2
:101BA000616761696E2E0D0A00436F6465632049A9
:101BB0006E697469616C697A65640D0A00416464D8
:101BC0007265737320003A200057616974696E670B
:101BD000203130207365636F6E647320666F7220EE
:101BE00041444320686967682070617373206669A7
:101BF0006C74657220746F2073746162696C697AA9
:101C0000650D0A00537461727420746573743F200B
:101C100028792F6E290D0A3E005374617274696E23
:101C20006720746573742E0D0A002C00456E6420C5
:101C30006F6620646174612E0D0A00FF001519158E
:101C4000000100005084FF1F12000000000200008D
:101C50006284FF1F43000000000300004C84FF1F4C
:101C600000000000010309043484FF1F000000008D
:101C7000020309041E84FF1F00000000030309047F
:101C80000884FF1F000000000000000000000000AA
:101C900000000000F8B500BFF8BC08BC9E467047C5
:041CA00099040000A3
:101CA400A0050020FFFFFFFF0C0300000000000060
:101CB4000000000000000000000000000000160307
:101CC4005500530042002000530065007200690073
:101CD40061006C0018035400650065006E00730019
:101CE40079006400750069006E006F000403090444
:101CF4001201000202000040C01683040001010228
:101D0400030109024300020100C03209040000017A
:101D1400020201000524001001052401010104242C
:101D24000206052406000107058203100040090489
:101D34000100020A00000007050302400000070535
:081D44008402400000000000D1
:00000001FF
